{
  "contractName": "Bankcoin",
  "abi": [
    {
      "constant": true,
      "inputs": [],
      "name": "totalSupply",
      "outputs": [
        {
          "name": "",
          "type": "uint256"
        }
      ],
      "payable": false,
      "stateMutability": "view",
      "type": "function",
      "signature": "0x18160ddd"
    },
    {
      "constant": true,
      "inputs": [],
      "name": "reserveRequirement",
      "outputs": [
        {
          "name": "",
          "type": "uint256"
        }
      ],
      "payable": false,
      "stateMutability": "view",
      "type": "function",
      "signature": "0x7f3c587e"
    },
    {
      "inputs": [],
      "payable": false,
      "stateMutability": "nonpayable",
      "type": "constructor",
      "signature": "constructor"
    },
    {
      "anonymous": false,
      "inputs": [
        {
          "indexed": true,
          "name": "_lender",
          "type": "address"
        },
        {
          "indexed": true,
          "name": "_id",
          "type": "uint256"
        },
        {
          "indexed": true,
          "name": "_debtor",
          "type": "address"
        },
        {
          "indexed": false,
          "name": "_amount",
          "type": "uint256"
        },
        {
          "indexed": false,
          "name": "_time",
          "type": "uint256"
        }
      ],
      "name": "InscribeLoan",
      "type": "event",
      "signature": "0x38fb7dacf26dd7e44c9a0f3a5321e74bfa65b64f10215ce013e267e9b3328608"
    },
    {
      "anonymous": false,
      "inputs": [
        {
          "indexed": true,
          "name": "_lender",
          "type": "address"
        },
        {
          "indexed": true,
          "name": "_id",
          "type": "uint256"
        },
        {
          "indexed": true,
          "name": "_debtor",
          "type": "address"
        },
        {
          "indexed": false,
          "name": "_amount",
          "type": "uint256"
        },
        {
          "indexed": false,
          "name": "_time",
          "type": "uint256"
        }
      ],
      "name": "SignLoan",
      "type": "event",
      "signature": "0x2b4e34bb9f11ba807aef363204417dacac2d3a98796515f24ef065d29c5ffbb6"
    },
    {
      "constant": true,
      "inputs": [
        {
          "name": "owner",
          "type": "address"
        }
      ],
      "name": "balanceOf",
      "outputs": [
        {
          "name": "balance",
          "type": "uint256"
        }
      ],
      "payable": false,
      "stateMutability": "view",
      "type": "function",
      "signature": "0x70a08231"
    },
    {
      "constant": true,
      "inputs": [
        {
          "name": "owner",
          "type": "address"
        }
      ],
      "name": "assetsOf",
      "outputs": [
        {
          "name": "assets",
          "type": "uint256"
        }
      ],
      "payable": false,
      "stateMutability": "view",
      "type": "function",
      "signature": "0x2c62fa10"
    },
    {
      "constant": true,
      "inputs": [
        {
          "name": "owner",
          "type": "address"
        }
      ],
      "name": "liabilitiesOf",
      "outputs": [
        {
          "name": "liabilities",
          "type": "uint256"
        }
      ],
      "payable": false,
      "stateMutability": "view",
      "type": "function",
      "signature": "0x8638110e"
    },
    {
      "constant": false,
      "inputs": [
        {
          "name": "account",
          "type": "address"
        },
        {
          "name": "amount",
          "type": "uint256"
        }
      ],
      "name": "transfer",
      "outputs": [
        {
          "name": "success",
          "type": "bool"
        }
      ],
      "payable": true,
      "stateMutability": "payable",
      "type": "function",
      "signature": "0xa9059cbb"
    },
    {
      "constant": false,
      "inputs": [
        {
          "name": "debtor",
          "type": "address"
        },
        {
          "name": "amount",
          "type": "uint256"
        },
        {
          "name": "timeDelta",
          "type": "uint256"
        }
      ],
      "name": "createLoan",
      "outputs": [
        {
          "name": "",
          "type": "bool"
        }
      ],
      "payable": false,
      "stateMutability": "nonpayable",
      "type": "function",
      "signature": "0x488dd3e6"
    },
    {
      "constant": false,
      "inputs": [
        {
          "name": "lender",
          "type": "address"
        },
        {
          "name": "index",
          "type": "uint256"
        }
      ],
      "name": "signLoanByIndex",
      "outputs": [
        {
          "name": "",
          "type": "bool"
        }
      ],
      "payable": false,
      "stateMutability": "nonpayable",
      "type": "function",
      "signature": "0x85f0d6d9"
    },
    {
      "constant": true,
      "inputs": [
        {
          "name": "lender",
          "type": "address"
        }
      ],
      "name": "getDebtIndex",
      "outputs": [
        {
          "name": "",
          "type": "uint256"
        }
      ],
      "payable": false,
      "stateMutability": "view",
      "type": "function",
      "signature": "0x9f17856b"
    },
    {
      "constant": true,
      "inputs": [
        {
          "name": "lender",
          "type": "address"
        },
        {
          "name": "index",
          "type": "uint256"
        }
      ],
      "name": "getDebtByIndex",
      "outputs": [
        {
          "name": "",
          "type": "uint256"
        },
        {
          "name": "",
          "type": "uint256"
        },
        {
          "name": "",
          "type": "bool"
        }
      ],
      "payable": false,
      "stateMutability": "view",
      "type": "function",
      "signature": "0xc4e6732d"
    },
    {
      "constant": true,
      "inputs": [
        {
          "name": "debtor",
          "type": "address"
        }
      ],
      "name": "getLoanIndex",
      "outputs": [
        {
          "name": "",
          "type": "uint256"
        }
      ],
      "payable": false,
      "stateMutability": "view",
      "type": "function",
      "signature": "0x4f76928e"
    },
    {
      "constant": true,
      "inputs": [
        {
          "name": "debtor",
          "type": "address"
        },
        {
          "name": "index",
          "type": "uint256"
        }
      ],
      "name": "getLoanByIndex",
      "outputs": [
        {
          "name": "",
          "type": "uint256"
        },
        {
          "name": "",
          "type": "uint256"
        },
        {
          "name": "",
          "type": "bool"
        }
      ],
      "payable": false,
      "stateMutability": "view",
      "type": "function",
      "signature": "0xbd754bf4"
    },
    {
      "constant": false,
      "inputs": [
        {
          "name": "lender",
          "type": "address"
        },
        {
          "name": "index",
          "type": "uint256"
        },
        {
          "name": "amount",
          "type": "uint256"
        }
      ],
      "name": "repayLoanByIndex",
      "outputs": [
        {
          "name": "",
          "type": "bool"
        }
      ],
      "payable": true,
      "stateMutability": "payable",
      "type": "function",
      "signature": "0xcb5f866b"
    }
  ],
  "bytecode": "0x608060405234801561001057600080fd5b5073__Helpers_______________________________622c1a9e650f9d297a859d6519438b44a65860096040518463ffffffff167c010000000000000000000000000000000000000000000000000000000002815260040180848152602001838152602001828152602001935050505060206040518083038186803b15801561009857600080fd5b505af41580156100ac573d6000803e3d6000fd5b505050506040513d60208110156100c257600080fd5b81019080805190602001909291905050506003819055506100e1610168565b606060405190810160405280606481526020016000815260200160008152509050806000803373ffffffffffffffffffffffffffffffffffffffff1673ffffffffffffffffffffffffffffffffffffffff1681526020019081526020016000206000820151816000015560208201518160010155604082015181600201559050505061018a565b6060604051908101604052806000815260200160008152602001600081525090565b611544806101996000396000f3fe6080604052600436106100c5576000357c0100000000000000000000000000000000000000000000000000000000900463ffffffff16806318160ddd146100ca5780632c62fa10146100f5578063488dd3e61461015a5780634f76928e146101d757806370a082311461023c5780637f3c587e146102a157806385f0d6d9146102cc5780638638110e1461033f5780639f17856b146103a4578063a9059cbb14610409578063bd754bf41461046f578063c4e6732d146104f0578063cb5f866b14610571575b600080fd5b3480156100d657600080fd5b506100df6105e1565b6040518082815260200191505060405180910390f35b34801561010157600080fd5b506101446004803603602081101561011857600080fd5b81019080803573ffffffffffffffffffffffffffffffffffffffff1690602001909291905050506105e7565b6040518082815260200191505060405180910390f35b34801561016657600080fd5b506101bd6004803603606081101561017d57600080fd5b81019080803573ffffffffffffffffffffffffffffffffffffffff1690602001909291908035906020019092919080359060200190929190505050610668565b604051808215151515815260200191505060405180910390f35b3480156101e357600080fd5b50610226600480360360208110156101fa57600080fd5b81019080803573ffffffffffffffffffffffffffffffffffffffff169060200190929190505050610a7c565b6040518082815260200191505060405180910390f35b34801561024857600080fd5b5061028b6004803603602081101561025f57600080fd5b81019080803573ffffffffffffffffffffffffffffffffffffffff169060200190929190505050610b05565b6040518082815260200191505060405180910390f35b3480156102ad57600080fd5b506102b6610b86565b6040518082815260200191505060405180910390f35b3480156102d857600080fd5b50610325600480360360408110156102ef57600080fd5b81019080803573ffffffffffffffffffffffffffffffffffffffff16906020019092919080359060200190929190505050610b8c565b604051808215151515815260200191505060405180910390f35b34801561034b57600080fd5b5061038e6004803603602081101561036257600080fd5b81019080803573ffffffffffffffffffffffffffffffffffffffff169060200190929190505050610e57565b6040518082815260200191505060405180910390f35b3480156103b057600080fd5b506103f3600480360360208110156103c757600080fd5b81019080803573ffffffffffffffffffffffffffffffffffffffff169060200190929190505050610ed8565b6040518082815260200191505060405180910390f35b6104556004803603604081101561041f57600080fd5b81019080803573ffffffffffffffffffffffffffffffffffffffff16906020019092919080359060200190929190505050610f61565b604051808215151515815260200191505060405180910390f35b34801561047b57600080fd5b506104c86004803603604081101561049257600080fd5b81019080803573ffffffffffffffffffffffffffffffffffffffff16906020019092919080359060200190929190505050610fc7565b6040518084815260200183815260200182151515158152602001935050505060405180910390f35b3480156104fc57600080fd5b506105496004803603604081101561051357600080fd5b81019080803573ffffffffffffffffffffffffffffffffffffffff1690602001909291908035906020019092919050505061113d565b6040518084815260200183815260200182151515158152602001935050505060405180910390f35b6105c76004803603606081101561058757600080fd5b81019080803573ffffffffffffffffffffffffffffffffffffffff169060200190929190803590602001909291908035906020019092919050505061123e565b604051808215151515815260200191505060405180910390f35b60045481565b60006105f16114d2565b6000808473ffffffffffffffffffffffffffffffffffffffff1673ffffffffffffffffffffffffffffffffffffffff16815260200190815260200160002060606040519081016040529081600082015481526020016001820154815260200160028201548152505090508060200151915050919050565b60008061067433610b05565b905060008461068233610e57565b01905060035473__Helpers_______________________________622c1a9e838560096040518463ffffffff167c010000000000000000000000000000000000000000000000000000000002815260040180848152602001838152602001828152602001935050505060206040518083038186803b15801561070357600080fd5b505af4158015610717573d6000803e3d6000fd5b505050506040513d602081101561072d57600080fd5b8101908080519060200190929190505050111561074f57600092505050610a75565b6107576114f4565b6060604051908101604052808781526020018642018152602001600015158152509050600160003373ffffffffffffffffffffffffffffffffffffffff1673ffffffffffffffffffffffffffffffffffffffff16815260200190815260200160002060008873ffffffffffffffffffffffffffffffffffffffff1673ffffffffffffffffffffffffffffffffffffffff1681526020019081526020016000208190806001815401808255809150509060018203906000526020600020906003020160009091929091909150600082015181600001556020820151816001015560408201518160020160006101000a81548160ff021916908315150217905550505050600260003373ffffffffffffffffffffffffffffffffffffffff1673ffffffffffffffffffffffffffffffffffffffff16815260200190815260200160002060008873ffffffffffffffffffffffffffffffffffffffff1673ffffffffffffffffffffffffffffffffffffffff168152602001908152602001600020600160003373ffffffffffffffffffffffffffffffffffffffff1673ffffffffffffffffffffffffffffffffffffffff16815260200190815260200160002060008973ffffffffffffffffffffffffffffffffffffffff1673ffffffffffffffffffffffffffffffffffffffff1681526020019081526020016000208054905090806001815401808255809150509060018203906000526020600020016000909192909190915055508673ffffffffffffffffffffffffffffffffffffffff16600260003373ffffffffffffffffffffffffffffffffffffffff1673ffffffffffffffffffffffffffffffffffffffff16815260200190815260200160002060008973ffffffffffffffffffffffffffffffffffffffff1673ffffffffffffffffffffffffffffffffffffffff168152602001908152602001600020805490503373ffffffffffffffffffffffffffffffffffffffff167f38fb7dacf26dd7e44c9a0f3a5321e74bfa65b64f10215ce013e267e9b332860889894201604051808381526020018281526020019250505060405180910390a4600193505050505b9392505050565b6000600260003373ffffffffffffffffffffffffffffffffffffffff1673ffffffffffffffffffffffffffffffffffffffff16815260200190815260200160002060008373ffffffffffffffffffffffffffffffffffffffff1673ffffffffffffffffffffffffffffffffffffffff168152602001908152602001600020805490509050919050565b6000610b0f6114d2565b6000808473ffffffffffffffffffffffffffffffffffffffff1673ffffffffffffffffffffffffffffffffffffffff16815260200190815260200160002060606040519081016040529081600082015481526020016001820154815260200160028201548152505090508060000151915050919050565b60035481565b6000610b966114f4565b600160008573ffffffffffffffffffffffffffffffffffffffff1673ffffffffffffffffffffffffffffffffffffffff16815260200190815260200160002060003373ffffffffffffffffffffffffffffffffffffffff1673ffffffffffffffffffffffffffffffffffffffff16815260200190815260200160002060018403815481101515610c2257fe5b90600052602060002090600302016060604051908101604052908160008201548152602001600182015481526020016002820160009054906101000a900460ff1615151515815250509050610c7b3382600001516113a0565b80600001516000808673ffffffffffffffffffffffffffffffffffffffff1673ffffffffffffffffffffffffffffffffffffffff1681526020019081526020016000206002016000828254019250508190555080600001516000808673ffffffffffffffffffffffffffffffffffffffff1673ffffffffffffffffffffffffffffffffffffffff1681526020019081526020016000206001016000828254019250508190555060018060008673ffffffffffffffffffffffffffffffffffffffff1673ffffffffffffffffffffffffffffffffffffffff16815260200190815260200160002060003373ffffffffffffffffffffffffffffffffffffffff1673ffffffffffffffffffffffffffffffffffffffff16815260200190815260200160002060018503815481101515610dae57fe5b906000526020600020906003020160020160006101000a81548160ff0219169083151502179055508373ffffffffffffffffffffffffffffffffffffffff16833373ffffffffffffffffffffffffffffffffffffffff167f2b4e34bb9f11ba807aef363204417dacac2d3a98796515f24ef065d29c5ffbb684600001518560200151604051808381526020018281526020019250505060405180910390a4600191505092915050565b6000610e616114d2565b6000808473ffffffffffffffffffffffffffffffffffffffff1673ffffffffffffffffffffffffffffffffffffffff16815260200190815260200160002060606040519081016040529081600082015481526020016001820154815260200160028201548152505090508060400151915050919050565b6000600260008373ffffffffffffffffffffffffffffffffffffffff1673ffffffffffffffffffffffffffffffffffffffff16815260200190815260200160002060003373ffffffffffffffffffffffffffffffffffffffff1673ffffffffffffffffffffffffffffffffffffffff168152602001908152602001600020805490509050919050565b600080610f6d33610b05565b90506000610f7a336105e7565b905083821015610f8f57600092505050610fc1565b600081141515610faf57808483031015610fae57600092505050610fc1565b5b610fba85338661142f565b6001925050505b92915050565b60008060006060600160003373ffffffffffffffffffffffffffffffffffffffff1673ffffffffffffffffffffffffffffffffffffffff16815260200190815260200160002060008773ffffffffffffffffffffffffffffffffffffffff1673ffffffffffffffffffffffffffffffffffffffff168152602001908152602001600020805480602002602001604051908101604052809291908181526020016000905b828210156110cc57838290600052602060002090600302016060604051908101604052908160008201548152602001600182015481526020016002820160009054906101000a900460ff1615151515815250508152602001906001019061106a565b50505050905080600186038151811015156110e357fe5b9060200190602002015160000151816001870381518110151561110257fe5b9060200190602002015160200151826001880381518110151561112157fe5b9060200190602002015160400151935093509350509250925092565b600080600061114a6114f4565b600160008773ffffffffffffffffffffffffffffffffffffffff1673ffffffffffffffffffffffffffffffffffffffff16815260200190815260200160002060003373ffffffffffffffffffffffffffffffffffffffff1673ffffffffffffffffffffffffffffffffffffffff168152602001908152602001600020600186038154811015156111d657fe5b90600052602060002090600302016060604051908101604052908160008201548152602001600182015481526020016002820160009054906101000a900460ff1615151515815250509050806000015181602001518260400151935093509350509250925092565b600081600160008673ffffffffffffffffffffffffffffffffffffffff1673ffffffffffffffffffffffffffffffffffffffff16815260200190815260200160002060003373ffffffffffffffffffffffffffffffffffffffff1673ffffffffffffffffffffffffffffffffffffffff168152602001908152602001600020600185038154811015156112cd57fe5b9060005260206000209060030201600001600082825403925050819055506112f58483610f61565b5060016000808673ffffffffffffffffffffffffffffffffffffffff1673ffffffffffffffffffffffffffffffffffffffff16815260200190815260200160002060020160008282540392505081905550816000803373ffffffffffffffffffffffffffffffffffffffff1673ffffffffffffffffffffffffffffffffffffffff16815260200190815260200160002060020160008282540392505081905550600190509392505050565b600073ffffffffffffffffffffffffffffffffffffffff168273ffffffffffffffffffffffffffffffffffffffff16141515156113dc57600080fd5b806000808473ffffffffffffffffffffffffffffffffffffffff1673ffffffffffffffffffffffffffffffffffffffff168152602001908152602001600020600001600082825401925050819055505050565b806000808473ffffffffffffffffffffffffffffffffffffffff1673ffffffffffffffffffffffffffffffffffffffff16815260200190815260200160002060000160008282540392505081905550806000808573ffffffffffffffffffffffffffffffffffffffff1673ffffffffffffffffffffffffffffffffffffffff16815260200190815260200160002060000160008282540192505081905550505050565b6060604051908101604052806000815260200160008152602001600081525090565b6060604051908101604052806000815260200160008152602001600015158152509056fea165627a7a72305820c535b52167ae9c14adb1c4110f64145eec938a656a35da0e82b12301e2ec38ff0029",
  "deployedBytecode": "0x6080604052600436106100c5576000357c0100000000000000000000000000000000000000000000000000000000900463ffffffff16806318160ddd146100ca5780632c62fa10146100f5578063488dd3e61461015a5780634f76928e146101d757806370a082311461023c5780637f3c587e146102a157806385f0d6d9146102cc5780638638110e1461033f5780639f17856b146103a4578063a9059cbb14610409578063bd754bf41461046f578063c4e6732d146104f0578063cb5f866b14610571575b600080fd5b3480156100d657600080fd5b506100df6105e1565b6040518082815260200191505060405180910390f35b34801561010157600080fd5b506101446004803603602081101561011857600080fd5b81019080803573ffffffffffffffffffffffffffffffffffffffff1690602001909291905050506105e7565b6040518082815260200191505060405180910390f35b34801561016657600080fd5b506101bd6004803603606081101561017d57600080fd5b81019080803573ffffffffffffffffffffffffffffffffffffffff1690602001909291908035906020019092919080359060200190929190505050610668565b604051808215151515815260200191505060405180910390f35b3480156101e357600080fd5b50610226600480360360208110156101fa57600080fd5b81019080803573ffffffffffffffffffffffffffffffffffffffff169060200190929190505050610a7c565b6040518082815260200191505060405180910390f35b34801561024857600080fd5b5061028b6004803603602081101561025f57600080fd5b81019080803573ffffffffffffffffffffffffffffffffffffffff169060200190929190505050610b05565b6040518082815260200191505060405180910390f35b3480156102ad57600080fd5b506102b6610b86565b6040518082815260200191505060405180910390f35b3480156102d857600080fd5b50610325600480360360408110156102ef57600080fd5b81019080803573ffffffffffffffffffffffffffffffffffffffff16906020019092919080359060200190929190505050610b8c565b604051808215151515815260200191505060405180910390f35b34801561034b57600080fd5b5061038e6004803603602081101561036257600080fd5b81019080803573ffffffffffffffffffffffffffffffffffffffff169060200190929190505050610e57565b6040518082815260200191505060405180910390f35b3480156103b057600080fd5b506103f3600480360360208110156103c757600080fd5b81019080803573ffffffffffffffffffffffffffffffffffffffff169060200190929190505050610ed8565b6040518082815260200191505060405180910390f35b6104556004803603604081101561041f57600080fd5b81019080803573ffffffffffffffffffffffffffffffffffffffff16906020019092919080359060200190929190505050610f61565b604051808215151515815260200191505060405180910390f35b34801561047b57600080fd5b506104c86004803603604081101561049257600080fd5b81019080803573ffffffffffffffffffffffffffffffffffffffff16906020019092919080359060200190929190505050610fc7565b6040518084815260200183815260200182151515158152602001935050505060405180910390f35b3480156104fc57600080fd5b506105496004803603604081101561051357600080fd5b81019080803573ffffffffffffffffffffffffffffffffffffffff1690602001909291908035906020019092919050505061113d565b6040518084815260200183815260200182151515158152602001935050505060405180910390f35b6105c76004803603606081101561058757600080fd5b81019080803573ffffffffffffffffffffffffffffffffffffffff169060200190929190803590602001909291908035906020019092919050505061123e565b604051808215151515815260200191505060405180910390f35b60045481565b60006105f16114d2565b6000808473ffffffffffffffffffffffffffffffffffffffff1673ffffffffffffffffffffffffffffffffffffffff16815260200190815260200160002060606040519081016040529081600082015481526020016001820154815260200160028201548152505090508060200151915050919050565b60008061067433610b05565b905060008461068233610e57565b01905060035473__Helpers_______________________________622c1a9e838560096040518463ffffffff167c010000000000000000000000000000000000000000000000000000000002815260040180848152602001838152602001828152602001935050505060206040518083038186803b15801561070357600080fd5b505af4158015610717573d6000803e3d6000fd5b505050506040513d602081101561072d57600080fd5b8101908080519060200190929190505050111561074f57600092505050610a75565b6107576114f4565b6060604051908101604052808781526020018642018152602001600015158152509050600160003373ffffffffffffffffffffffffffffffffffffffff1673ffffffffffffffffffffffffffffffffffffffff16815260200190815260200160002060008873ffffffffffffffffffffffffffffffffffffffff1673ffffffffffffffffffffffffffffffffffffffff1681526020019081526020016000208190806001815401808255809150509060018203906000526020600020906003020160009091929091909150600082015181600001556020820151816001015560408201518160020160006101000a81548160ff021916908315150217905550505050600260003373ffffffffffffffffffffffffffffffffffffffff1673ffffffffffffffffffffffffffffffffffffffff16815260200190815260200160002060008873ffffffffffffffffffffffffffffffffffffffff1673ffffffffffffffffffffffffffffffffffffffff168152602001908152602001600020600160003373ffffffffffffffffffffffffffffffffffffffff1673ffffffffffffffffffffffffffffffffffffffff16815260200190815260200160002060008973ffffffffffffffffffffffffffffffffffffffff1673ffffffffffffffffffffffffffffffffffffffff1681526020019081526020016000208054905090806001815401808255809150509060018203906000526020600020016000909192909190915055508673ffffffffffffffffffffffffffffffffffffffff16600260003373ffffffffffffffffffffffffffffffffffffffff1673ffffffffffffffffffffffffffffffffffffffff16815260200190815260200160002060008973ffffffffffffffffffffffffffffffffffffffff1673ffffffffffffffffffffffffffffffffffffffff168152602001908152602001600020805490503373ffffffffffffffffffffffffffffffffffffffff167f38fb7dacf26dd7e44c9a0f3a5321e74bfa65b64f10215ce013e267e9b332860889894201604051808381526020018281526020019250505060405180910390a4600193505050505b9392505050565b6000600260003373ffffffffffffffffffffffffffffffffffffffff1673ffffffffffffffffffffffffffffffffffffffff16815260200190815260200160002060008373ffffffffffffffffffffffffffffffffffffffff1673ffffffffffffffffffffffffffffffffffffffff168152602001908152602001600020805490509050919050565b6000610b0f6114d2565b6000808473ffffffffffffffffffffffffffffffffffffffff1673ffffffffffffffffffffffffffffffffffffffff16815260200190815260200160002060606040519081016040529081600082015481526020016001820154815260200160028201548152505090508060000151915050919050565b60035481565b6000610b966114f4565b600160008573ffffffffffffffffffffffffffffffffffffffff1673ffffffffffffffffffffffffffffffffffffffff16815260200190815260200160002060003373ffffffffffffffffffffffffffffffffffffffff1673ffffffffffffffffffffffffffffffffffffffff16815260200190815260200160002060018403815481101515610c2257fe5b90600052602060002090600302016060604051908101604052908160008201548152602001600182015481526020016002820160009054906101000a900460ff1615151515815250509050610c7b3382600001516113a0565b80600001516000808673ffffffffffffffffffffffffffffffffffffffff1673ffffffffffffffffffffffffffffffffffffffff1681526020019081526020016000206002016000828254019250508190555080600001516000808673ffffffffffffffffffffffffffffffffffffffff1673ffffffffffffffffffffffffffffffffffffffff1681526020019081526020016000206001016000828254019250508190555060018060008673ffffffffffffffffffffffffffffffffffffffff1673ffffffffffffffffffffffffffffffffffffffff16815260200190815260200160002060003373ffffffffffffffffffffffffffffffffffffffff1673ffffffffffffffffffffffffffffffffffffffff16815260200190815260200160002060018503815481101515610dae57fe5b906000526020600020906003020160020160006101000a81548160ff0219169083151502179055508373ffffffffffffffffffffffffffffffffffffffff16833373ffffffffffffffffffffffffffffffffffffffff167f2b4e34bb9f11ba807aef363204417dacac2d3a98796515f24ef065d29c5ffbb684600001518560200151604051808381526020018281526020019250505060405180910390a4600191505092915050565b6000610e616114d2565b6000808473ffffffffffffffffffffffffffffffffffffffff1673ffffffffffffffffffffffffffffffffffffffff16815260200190815260200160002060606040519081016040529081600082015481526020016001820154815260200160028201548152505090508060400151915050919050565b6000600260008373ffffffffffffffffffffffffffffffffffffffff1673ffffffffffffffffffffffffffffffffffffffff16815260200190815260200160002060003373ffffffffffffffffffffffffffffffffffffffff1673ffffffffffffffffffffffffffffffffffffffff168152602001908152602001600020805490509050919050565b600080610f6d33610b05565b90506000610f7a336105e7565b905083821015610f8f57600092505050610fc1565b600081141515610faf57808483031015610fae57600092505050610fc1565b5b610fba85338661142f565b6001925050505b92915050565b60008060006060600160003373ffffffffffffffffffffffffffffffffffffffff1673ffffffffffffffffffffffffffffffffffffffff16815260200190815260200160002060008773ffffffffffffffffffffffffffffffffffffffff1673ffffffffffffffffffffffffffffffffffffffff168152602001908152602001600020805480602002602001604051908101604052809291908181526020016000905b828210156110cc57838290600052602060002090600302016060604051908101604052908160008201548152602001600182015481526020016002820160009054906101000a900460ff1615151515815250508152602001906001019061106a565b50505050905080600186038151811015156110e357fe5b9060200190602002015160000151816001870381518110151561110257fe5b9060200190602002015160200151826001880381518110151561112157fe5b9060200190602002015160400151935093509350509250925092565b600080600061114a6114f4565b600160008773ffffffffffffffffffffffffffffffffffffffff1673ffffffffffffffffffffffffffffffffffffffff16815260200190815260200160002060003373ffffffffffffffffffffffffffffffffffffffff1673ffffffffffffffffffffffffffffffffffffffff168152602001908152602001600020600186038154811015156111d657fe5b90600052602060002090600302016060604051908101604052908160008201548152602001600182015481526020016002820160009054906101000a900460ff1615151515815250509050806000015181602001518260400151935093509350509250925092565b600081600160008673ffffffffffffffffffffffffffffffffffffffff1673ffffffffffffffffffffffffffffffffffffffff16815260200190815260200160002060003373ffffffffffffffffffffffffffffffffffffffff1673ffffffffffffffffffffffffffffffffffffffff168152602001908152602001600020600185038154811015156112cd57fe5b9060005260206000209060030201600001600082825403925050819055506112f58483610f61565b5060016000808673ffffffffffffffffffffffffffffffffffffffff1673ffffffffffffffffffffffffffffffffffffffff16815260200190815260200160002060020160008282540392505081905550816000803373ffffffffffffffffffffffffffffffffffffffff1673ffffffffffffffffffffffffffffffffffffffff16815260200190815260200160002060020160008282540392505081905550600190509392505050565b600073ffffffffffffffffffffffffffffffffffffffff168273ffffffffffffffffffffffffffffffffffffffff16141515156113dc57600080fd5b806000808473ffffffffffffffffffffffffffffffffffffffff1673ffffffffffffffffffffffffffffffffffffffff168152602001908152602001600020600001600082825401925050819055505050565b806000808473ffffffffffffffffffffffffffffffffffffffff1673ffffffffffffffffffffffffffffffffffffffff16815260200190815260200160002060000160008282540392505081905550806000808573ffffffffffffffffffffffffffffffffffffffff1673ffffffffffffffffffffffffffffffffffffffff16815260200190815260200160002060000160008282540192505081905550505050565b6060604051908101604052806000815260200160008152602001600081525090565b6060604051908101604052806000815260200160008152602001600015158152509056fea165627a7a72305820c535b52167ae9c14adb1c4110f64145eec938a656a35da0e82b12301e2ec38ff0029",
  "source": "pragma solidity ^0.5.0;\nimport \"./Helpers.sol\";\nimport \"./Safemath.sol\";\ncontract Bankcoin {\n\t// contracts are bi-maps equiped with an index\n\n\tevent InscribeLoan(\n\t\taddress indexed _lender,\n\t\tuint256 indexed _id,\n\t\taddress indexed  _debtor,\n\t\tuint256 _amount,\n\t\tuint256 _time\n\t);\n\tevent SignLoan(\n\t\taddress indexed _lender,\n\t  uint256\tindexed _id,\n\t\taddress indexed _debtor,\n\t\tuint256 _amount,\n\t\tuint256 _time\n\t);\n\n\n\t// depositing vs multisig loaning\n\tstruct Account {\n\t\tuint256 _balance;\n\t\tuint256 _assets;\n\t\tuint256 _liabilities;\n\t}\n\tmapping (address => Account) _accounts;\n\n\n\tstruct Loan {\n\t\tuint256 _principle;\n\t\tuint256 _time;\n\t\tbool _isApproved;\n\t}\n\t// _loans[lender][debtor]\n\tmapping (address => mapping (address => Loan[])) _loans;\n\t// _loanIndices[lender][sendor]\n\t// its an array to utilize .push for the index\n\tmapping (address => mapping (address => uint256[])) _loanIndices;\n\tuint256 public reserveRequirement;\n\tuint256 public totalSupply;\n\n\tconstructor() public {\n\t\t// Ratios of fibonnaci numbers approximate phi - 1 which equals  1 / phi \n\t\t// larger numbers produce better precision\n\t\t// -> question what would be optimal precision for this?\n\t\treserveRequirement = Helpers.percent(17167680177565, 27777890035288, 9);\n\t\t// Outputs a whole number representing a proportion\n\t\t// 61833989\n\n\t\t// initial amount\n\t\t// Look to the wiki for information on actual production scenario\n\t\tAccount memory account = Account(100, 0, 0);\n\t\t_accounts[msg.sender] = account;\n\t}\n\n\t// are these getters needed if public is added in the struct def?\n\n\tfunction balanceOf(address owner) public view returns (uint256 balance) {\n\t\tAccount memory account = _accounts[owner];\n\t\treturn account._balance;\n\t}\n\n\tfunction assetsOf(address owner) public view returns (uint256 assets) {\n\t\tAccount memory account = _accounts[owner];\n\t\treturn account._assets;\n\t}\n\n\tfunction liabilitiesOf(address owner) public view returns (uint256 liabilities) {\n\t\tAccount memory account = _accounts[owner];\n\t\treturn account._liabilities;\n\t}\n\n\n\t// glory to the openzep mint function\n\tfunction _mint(address reciever, uint256 amount) internal {\n\t\trequire(reciever != address(0));\n\n\t\t_accounts[reciever]._balance += amount; \n\n\t}\n\n\n\tfunction _transfer(address to, address from, uint256 amount) internal {\t\n\t\t_accounts[from]._balance -= amount;\n\t\t_accounts[to]._balance += amount;\n\t}\n\n\tfunction transfer(address account, uint256 amount) public payable returns (bool success) {\t\n\t\tuint256 lenderBalance = balanceOf(msg.sender);\n\t\tuint256 lenderAssets = assetsOf(msg.sender);\n\t\t// cannot transfer if staked against a loan\n\t\t// L / A <= 0.618 ,\n\t\tif (lenderBalance < amount) {\n\t\t\treturn false;\n\t\t}\n\n\t\tif (lenderAssets != 0) {\n\t\t\tif (lenderBalance - amount < lenderAssets) {\n\t\t\t\treturn false;\n\t\t\t}\n\t\t}\n\t\t_transfer(account, msg.sender, amount);\n\n\n\n\t\t// Condition\n\t\t// Assets / Liabilities cannot be higher than 0.618\n\t\t// if 0 Assets and/or 0 Liabilities\n\n\n\t\treturn true;\n\t}\n\n\tfunction createLoan(address debtor, uint256 amount, uint256 timeDelta) public returns (bool) {\n\t\tuint256 lenderAssets = balanceOf(msg.sender);\n\t\tuint256 lenderLiabilities = liabilitiesOf(msg.sender) + amount;\n\t\tif(Helpers.percent(lenderLiabilities, lenderAssets, 9)  > reserveRequirement) {\n\t\t\treturn false;\n\t\t}\t\n\t\tLoan memory newLoan = Loan(amount, now + timeDelta, false);\n\t\t// add to chain\n\t\t_loans[msg.sender][debtor].push(newLoan);\n\t\t_loanIndices[msg.sender][debtor].push(_loans[msg.sender][debtor].length);\n\n\t\temit InscribeLoan(\n\t\t\tmsg.sender,\n\t\t\t_loanIndices[msg.sender][debtor].length,\n\t\t \tdebtor,\n\t\t\tamount,\n\t\t\tnow + timeDelta\n\t\t\t);\n\t\treturn true;\t\t\n\t}\n\n\tfunction signLoanByIndex(address lender, uint256 index) public returns (bool) {\n\t\tLoan memory loan = _loans[lender][msg.sender][index - 1];\n\t\t// yes the mint function is here\n\t\t_mint(msg.sender, loan._principle);\n\n\t\t_accounts[lender]._liabilities += loan._principle;\n\t\t_accounts[lender]._assets  += loan._principle;\n\t\t_loans[lender][msg.sender][index - 1]._isApproved = true;\n\t\t// SignLoan(Creditor, index, Lender)\n\t\temit SignLoan(\n\t\t\tmsg.sender,\n\t\t \tindex,\n\t\t \tlender,\n\t\t\tloan._principle,\n\t\t\tloan._time\n\t\t\t);\n\t\treturn true;\n\t}\n\n\tfunction getDebtIndex(address lender) public view returns (uint256) {\n\t\treturn _loanIndices[lender][msg.sender].length;\n\t}\n\n\tfunction getDebtByIndex(address lender, uint256 index) public view returns (uint256, uint256, bool) {\n\t\tLoan memory loan = _loans[lender][msg.sender][index - 1];\n\t\treturn (loan._principle, loan._time, loan._isApproved);\n\n\t}\n\n\tfunction getLoanIndex(address debtor) public view returns (uint256) {\n\t\treturn _loanIndices[msg.sender][debtor].length;\n\t}\n\n\tfunction getLoanByIndex(address debtor, uint256 index) public view returns (uint256, uint256, bool) {\n\t\tLoan[] memory loans = _loans[msg.sender][debtor];\n\t\treturn (loans[index - 1]._principle, loans[index - 1]._time, loans[index -1]._isApproved);\n\t}\n\n\n\tfunction repayLoanByIndex(address lender, uint256 index, uint256 amount) public payable returns (bool) {\n\t\t_loans[lender][msg.sender][index - 1]._principle -= amount;\n\t\ttransfer(lender, amount);\n\t\t_accounts[lender]._liabilities -= 1;\n\t\t_accounts[msg.sender]._liabilities -= amount;\n\t\treturn true;\n\t}\n}\n\n\n\n\n",
  "sourcePath": "/home/taylor/dream_projects/bankcoin/bankcoin/contracts/Bankcoin.sol",
  "compiler": {
    "name": "solc",
    "version": "0.5.0+commit.1d4f565a.Emscripten.clang"
  },
  "schemaVersion": "3.0.0",
  "updatedAt": "2019-05-05T15:25:25.268Z",
  "devdoc": {
    "methods": {}
  },
  "userdoc": {
    "methods": {}
  }
}