{
  "contractName": "Helpers",
  "abi": [
    {
      "constant": true,
      "inputs": [
        {
          "name": "numerator",
          "type": "uint256"
        },
        {
          "name": "denominator",
          "type": "uint256"
        },
        {
          "name": "precision",
          "type": "uint256"
        }
      ],
      "name": "percent",
      "outputs": [
        {
          "name": "quotient",
          "type": "uint256"
        }
      ],
      "payable": false,
      "stateMutability": "pure",
      "type": "function",
      "signature": "0x002c1a9e"
    }
  ],
  "bytecode": "0x610110610030600b82828239805160001a6073146000811461002057610022565bfe5b5030600052607381538281f3fe73000000000000000000000000000000000000000030146080604052600436106055576000357c0100000000000000000000000000000000000000000000000000000000900463ffffffff1680622c1a9e14605a575b600080fd5b609760048036036060811015606e57600080fd5b8101908080359060200190929190803590602001909291908035906020019092919050505060ad565b6040518082815260200191505060405180910390f35b60008060018301600a0a850290506000600a6005868481151560cb57fe5b040181151560d557fe5b0490508092505050939250505056fea165627a7a72305820c1952f56902020a67a1d5eb62d8e22d5079acf55d1c0969a7c267b12cde96d440029",
  "source": "pragma solidity 0.5.0;\n\nlibrary Helpers {\n\n\tfunction percent(uint numerator, uint denominator, uint precision) public pure returns(uint quotient) {\n\n\t\t// caution, check safe-to-multiply here\n\t\tuint _numerator  = numerator * 10 ** (precision+1);\n\t\t// with rounding of last digit\n\t\tuint _quotient =  ((_numerator / denominator) + 5) / 10;\n\t\treturn ( _quotient);\n\t}\n}\n\n",
  "sourcePath": "/home/taylor/dream_projects/node-react-docker-compose/contracts/Helpers.sol",
  "compiler": {
    "name": "solc",
    "version": "0.5.0+commit.1d4f565a.Emscripten.clang"
  },
  "schemaVersion": "3.0.0",
  "updatedAt": "2019-03-17T22:39:52.365Z",
  "devdoc": {
    "methods": {}
  },
  "userdoc": {
    "methods": {}
  }
}